{
  "_format": "hh-sol-artifact-1",
  "contractName": "careerfair",
  "sourceName": "contracts/careerfair.sol",
  "abi": [
    {
      "inputs": [],
      "stateMutability": "nonpayable",
      "type": "constructor"
    },
    {
      "anonymous": false,
      "inputs": [
        {
          "indexed": false,
          "internalType": "address[]",
          "name": "attendees",
          "type": "address[]"
        }
      ],
      "name": "printAttendees",
      "type": "event"
    },
    {
      "anonymous": false,
      "inputs": [
        {
          "indexed": false,
          "internalType": "string[]",
          "name": "companies",
          "type": "string[]"
        }
      ],
      "name": "printCompanies",
      "type": "event"
    },
    {
      "inputs": [
        {
          "internalType": "string",
          "name": "companyName",
          "type": "string"
        }
      ],
      "name": "add",
      "outputs": [],
      "stateMutability": "nonpayable",
      "type": "function"
    },
    {
      "inputs": [
        {
          "internalType": "uint256",
          "name": "",
          "type": "uint256"
        }
      ],
      "name": "compArr",
      "outputs": [
        {
          "internalType": "string",
          "name": "",
          "type": "string"
        }
      ],
      "stateMutability": "view",
      "type": "function"
    },
    {
      "inputs": [],
      "name": "enroll",
      "outputs": [],
      "stateMutability": "nonpayable",
      "type": "function"
    },
    {
      "inputs": [],
      "name": "getAttendees",
      "outputs": [],
      "stateMutability": "nonpayable",
      "type": "function"
    },
    {
      "inputs": [],
      "name": "getCompanies",
      "outputs": [],
      "stateMutability": "nonpayable",
      "type": "function"
    },
    {
      "inputs": [],
      "name": "numOfAttendees",
      "outputs": [
        {
          "internalType": "uint256",
          "name": "",
          "type": "uint256"
        }
      ],
      "stateMutability": "view",
      "type": "function"
    },
    {
      "inputs": [],
      "name": "owner",
      "outputs": [
        {
          "internalType": "address",
          "name": "",
          "type": "address"
        }
      ],
      "stateMutability": "view",
      "type": "function"
    },
    {
      "inputs": [
        {
          "internalType": "uint256",
          "name": "",
          "type": "uint256"
        }
      ],
      "name": "studArr",
      "outputs": [
        {
          "internalType": "address",
          "name": "",
          "type": "address"
        }
      ],
      "stateMutability": "view",
      "type": "function"
    },
    {
      "inputs": [],
      "name": "unenroll",
      "outputs": [],
      "stateMutability": "nonpayable",
      "type": "function"
    }
  ],
  "bytecode": "0x608060405234801561001057600080fd5b50336000806101000a81548173ffffffffffffffffffffffffffffffffffffffff021916908373ffffffffffffffffffffffffffffffffffffffff160217905550611634806100606000396000f3fe608060405234801561001057600080fd5b50600436106100935760003560e01c8063837e83d711610066578063837e83d7146100e65780638724eb85146101045780638da5cb5b14610134578063b0c8f9dc14610152578063e65f2a7e1461016e57610093565b80630c0b66911461009857806320f3b418146100a25780632bed5a23146100ac5780634165a1bb146100dc575b600080fd5b6100a0610178565b005b6100aa6101b2565b005b6100c660048036038101906100c19190610a16565b61043e565b6040516100d39190610a84565b60405180910390f35b6100e461047d565b005b6100ee6104b7565b6040516100fb9190610aae565b60405180910390f35b61011e60048036038101906101199190610a16565b6104bd565b60405161012b9190610b59565b60405180910390f35b61013c610569565b6040516101499190610a84565b60405180910390f35b61016c60048036038101906101679190610cb0565b61058d565b005b6101766107b8565b005b7fc3567d3cb3b2d97af0bb39f276f417de6da5ea6b980bc6a6a53839898b4ef7bf60036040516101a89190610ec9565b60405180910390a1565b6000600460003373ffffffffffffffffffffffffffffffffffffffff1673ffffffffffffffffffffffffffffffffffffffff1681526020019081526020016000206040518060600160405290816000820160009054906101000a900473ffffffffffffffffffffffffffffffffffffffff1673ffffffffffffffffffffffffffffffffffffffff1673ffffffffffffffffffffffffffffffffffffffff1681526020016000820160149054906101000a900460ff161515151581526020016000820160159054906101000a900460ff16151515158152505090506001151581604001511515146102d7576040517f08c379a00000000000000000000000000000000000000000000000000000000081526004016102ce90610f5d565b60405180910390fd5b600115158160200151151514610322576040517f08c379a000000000000000000000000000000000000000000000000000000000815260040161031990610fc9565b60405180910390fd5b6000816020019015159081151581525050600081604001901515908115158152505060005b60058054905081101561042257816000015173ffffffffffffffffffffffffffffffffffffffff166005828154811061038357610382610fe9565b5b9060005260206000200160009054906101000a900473ffffffffffffffffffffffffffffffffffffffff1673ffffffffffffffffffffffffffffffffffffffff160361040f57600581815481106103dd576103dc610fe9565b5b9060005260206000200160006101000a81549073ffffffffffffffffffffffffffffffffffffffff0219169055610422565b808061041a90611047565b915050610347565b50600160008154809291906104369061108f565b919050555050565b6005818154811061044e57600080fd5b906000526020600020016000915054906101000a900473ffffffffffffffffffffffffffffffffffffffff1681565b7fd10cb45bccfc3e9353ea895852042f70be2fdedce09806516354aaebe758259260056040516104ad91906111dc565b60405180910390a1565b60015481565b600381815481106104cd57600080fd5b9060005260206000200160009150905080546104e890610d59565b80601f016020809104026020016040519081016040528092919081815260200182805461051490610d59565b80156105615780601f1061053657610100808354040283529160200191610561565b820191906000526020600020905b81548152906001019060200180831161054457829003601f168201915b505050505081565b60008054906101000a900473ffffffffffffffffffffffffffffffffffffffff1681565b60008054906101000a900473ffffffffffffffffffffffffffffffffffffffff1673ffffffffffffffffffffffffffffffffffffffff163373ffffffffffffffffffffffffffffffffffffffff161461061b576040517f08c379a00000000000000000000000000000000000000000000000000000000081526004016106129061124a565b60405180910390fd5b6000151560028260405161062f91906112a6565b908152602001604051809103902060010160009054906101000a900460ff16151514610690576040517f08c379a000000000000000000000000000000000000000000000000000000000815260040161068790611309565b60405180910390fd5b60006002826040516106a291906112a6565b90815260200160405180910390206040518060400160405290816000820180546106cb90610d59565b80601f01602080910402602001604051908101604052809291908181526020018280546106f790610d59565b80156107445780601f1061071957610100808354040283529160200191610744565b820191906000526020600020905b81548152906001019060200180831161072757829003601f168201915b505050505081526020016001820160009054906101000a900460ff16151515158152505090506001816020019015159081151581525050600381600001519080600181540180825580915050600190039060005260206000200160009091909190915090816107b391906114c0565b505050565b6000600460003373ffffffffffffffffffffffffffffffffffffffff1673ffffffffffffffffffffffffffffffffffffffff1681526020019081526020016000206040518060600160405290816000820160009054906101000a900473ffffffffffffffffffffffffffffffffffffffff1673ffffffffffffffffffffffffffffffffffffffff1673ffffffffffffffffffffffffffffffffffffffff1681526020016000820160149054906101000a900460ff161515151581526020016000820160159054906101000a900460ff161515151581525050905060001515600460003373ffffffffffffffffffffffffffffffffffffffff1673ffffffffffffffffffffffffffffffffffffffff16815260200190815260200160002060000160159054906101000a900460ff16151514610928576040517f08c379a000000000000000000000000000000000000000000000000000000000815260040161091f906115de565b60405180910390fd5b60018160200190151590811515815250506001816040019015159081151581525050600581600001519080600181540180825580915050600190039060005260206000200160009091909190916101000a81548173ffffffffffffffffffffffffffffffffffffffff021916908373ffffffffffffffffffffffffffffffffffffffff160217905550600160008154809291906109c490611047565b919050555050565b6000604051905090565b600080fd5b600080fd5b6000819050919050565b6109f3816109e0565b81146109fe57600080fd5b50565b600081359050610a10816109ea565b92915050565b600060208284031215610a2c57610a2b6109d6565b5b6000610a3a84828501610a01565b91505092915050565b600073ffffffffffffffffffffffffffffffffffffffff82169050919050565b6000610a6e82610a43565b9050919050565b610a7e81610a63565b82525050565b6000602082019050610a996000830184610a75565b92915050565b610aa8816109e0565b82525050565b6000602082019050610ac36000830184610a9f565b92915050565b600081519050919050565b600082825260208201905092915050565b60005b83811015610b03578082015181840152602081019050610ae8565b60008484015250505050565b6000601f19601f8301169050919050565b6000610b2b82610ac9565b610b358185610ad4565b9350610b45818560208601610ae5565b610b4e81610b0f565b840191505092915050565b60006020820190508181036000830152610b738184610b20565b905092915050565b600080fd5b600080fd5b7f4e487b7100000000000000000000000000000000000000000000000000000000600052604160045260246000fd5b610bbd82610b0f565b810181811067ffffffffffffffff82111715610bdc57610bdb610b85565b5b80604052505050565b6000610bef6109cc565b9050610bfb8282610bb4565b919050565b600067ffffffffffffffff821115610c1b57610c1a610b85565b5b610c2482610b0f565b9050602081019050919050565b82818337600083830152505050565b6000610c53610c4e84610c00565b610be5565b905082815260208101848484011115610c6f57610c6e610b80565b5b610c7a848285610c31565b509392505050565b600082601f830112610c9757610c96610b7b565b5b8135610ca7848260208601610c40565b91505092915050565b600060208284031215610cc657610cc56109d6565b5b600082013567ffffffffffffffff811115610ce457610ce36109db565b5b610cf084828501610c82565b91505092915050565b600081549050919050565b600082825260208201905092915050565b60008190508160005260206000209050919050565b7f4e487b7100000000000000000000000000000000000000000000000000000000600052602260045260246000fd5b60006002820490506001821680610d7157607f821691505b602082108103610d8457610d83610d2a565b5b50919050565b600082825260208201905092915050565b60008190508160005260206000209050919050565b60008154610dbd81610d59565b610dc78186610d8a565b94506001821660008114610de25760018114610df857610e2b565b60ff198316865281151560200286019350610e2b565b610e0185610d9b565b60005b83811015610e2357815481890152600182019150602081019050610e04565b808801955050505b50505092915050565b6000610e408383610db0565b905092915050565b6000600182019050919050565b6000610e6082610cf9565b610e6a8185610d04565b935083602082028501610e7c85610d15565b8060005b85811015610eb757848403895281610e988582610e34565b9450610ea383610e48565b925060208a01995050600181019050610e80565b50829750879550505050505092915050565b60006020820190508181036000830152610ee38184610e55565b905092915050565b7f43616e277420756e726f6c6c20612073747564656e742074686174206973206e60008201527f6f7420656e726f6c6c6564000000000000000000000000000000000000000000602082015250565b6000610f47602b83610ad4565b9150610f5282610eeb565b604082019050919050565b60006020820190508181036000830152610f7681610f3a565b9050919050565b7f546869732073747564656e7420646f6573206e6f742065786973740000000000600082015250565b6000610fb3601b83610ad4565b9150610fbe82610f7d565b602082019050919050565b60006020820190508181036000830152610fe281610fa6565b9050919050565b7f4e487b7100000000000000000000000000000000000000000000000000000000600052603260045260246000fd5b7f4e487b7100000000000000000000000000000000000000000000000000000000600052601160045260246000fd5b6000611052826109e0565b91507fffffffffffffffffffffffffffffffffffffffffffffffffffffffffffffffff820361108457611083611018565b5b600182019050919050565b600061109a826109e0565b9150600082036110ad576110ac611018565b5b600182039050919050565b600081549050919050565b600082825260208201905092915050565b60008190508160005260206000209050919050565b6110f281610a63565b82525050565b600061110483836110e9565b60208301905092915050565b60008160001c9050919050565b600073ffffffffffffffffffffffffffffffffffffffff82169050919050565b600061115061114b83611110565b61111d565b9050919050565b6000611163825461113d565b9050919050565b6000600182019050919050565b6000611182826110b8565b61118c81856110c3565b9350611197836110d4565b8060005b838110156111cf576111ac82611157565b6111b688826110f8565b97506111c18361116a565b92505060018101905061119b565b5085935050505092915050565b600060208201905081810360008301526111f68184611177565b905092915050565b7f4f6e6c79206f776e65722063616e206164642061206e657720636f6d70616e79600082015250565b6000611234602083610ad4565b915061123f826111fe565b602082019050919050565b6000602082019050818103600083015261126381611227565b9050919050565b600081905092915050565b600061128082610ac9565b61128a818561126a565b935061129a818560208601610ae5565b80840191505092915050565b60006112b28284611275565b915081905092915050565b7f5468697320636f6d70616e7920616c7265616479206578697374730000000000600082015250565b60006112f3601b83610ad4565b91506112fe826112bd565b602082019050919050565b60006020820190508181036000830152611322816112e6565b9050919050565b60006020601f8301049050919050565b600082821b905092915050565b6000600883026113767fffffffffffffffffffffffffffffffffffffffffffffffffffffffffffffffff82611339565b6113808683611339565b95508019841693508086168417925050509392505050565b6000819050919050565b60006113bd6113b86113b3846109e0565b611398565b6109e0565b9050919050565b6000819050919050565b6113d7836113a2565b6113eb6113e3826113c4565b848454611346565b825550505050565b600090565b6114006113f3565b61140b8184846113ce565b505050565b5b8181101561142f576114246000826113f8565b600181019050611411565b5050565b601f8211156114745761144581610d9b565b61144e84611329565b8101602085101561145d578190505b61147161146985611329565b830182611410565b50505b505050565b600082821c905092915050565b600061149760001984600802611479565b1980831691505092915050565b60006114b08383611486565b9150826002028217905092915050565b6114c982610ac9565b67ffffffffffffffff8111156114e2576114e1610b85565b5b6114ec8254610d59565b6114f7828285611433565b600060209050601f83116001811461152a5760008415611518578287015190505b61152285826114a4565b86555061158a565b601f19841661153886610d9b565b60005b828110156115605784890151825560018201915060208501945060208101905061153b565b8683101561157d5784890151611579601f891682611486565b8355505b6001600288020188555050505b505050505050565b7f53747564656e7420616c7265616420656e726f6c6c6564000000000000000000600082015250565b60006115c8601783610ad4565b91506115d382611592565b602082019050919050565b600060208201905081810360008301526115f7816115bb565b905091905056fea2646970667358221220d2cdcf92138ca667eedfb6ef6fd5764bfbd138ace6d88d930a3c43e72499df0264736f6c63430008110033",
  "linkReferences": {},
  "deployedLinkReferences": {}
}